:020000040800F2
:1000000000000220B1A504087F2B04086D2B040812
:10001000812B0408912B0408A12B04080000000088
:10002000000000000000000000000000B12B0408E8
:10003000B32B040800000000B52B0408B92B0408FA
:10004000FDA504081D2D0408292D0408312D0408E0
:10005000AD2C0408FDA50408B12C0408B72C040835
:10006000BD2C0408C32C0408C92C04080956040834
:100070001956040829560408395604084956040834
:100080005956040869560408FDA50408FDA504088E
:10009000FDA50408FDA50408FDA50408CF2C04084F
:1000A000452D04084B2D04085D2D0408632D04081C
:1000B000692D04086F2D0408752D0408B92D040856
:1000C000BF2D0408FDA50408FDA50408FDA504082E
:1000D000FDA50408952D04089B2D0408A12D0408F6
:1000E000F32C0408232D04083D2C0408FDA5040866
:1000F000FDA50408FDA50408FDA50408795604081B
:10010000FDA50408FDA504087D2D0408FDA504082F
:10011000A72D0408AD2D0408FDA50408FDA50408BD
:100120008956040899560408A9560408B9560408C3
:10013000C9560408FDA50408FDA50408FDA504088A
:10014000FDA50408FDA50408FDA50408312C04083C
:10015000D9560408E9560408F9560408B32D0408D2
:10016000C52D0408CB2D0408FDA50408FDA5040831
:10017000FDA50408FDA50408FDA504080000000075
:10018000FDA50408FDA504088378C27843EA02228D
:100190004378007843EA022340EA032070470B0AC1
:1001A000017043700B0C090E8370C1707047036AB5
:1001B0000239023B99423DBFC289436B02FB0130C9
:1001C0000020704700F10B010023DA0142EA5303DB
:1001D00010F8012B52FA83F38842DBB2F5D11846AE
:1001E000704737B50D46044618B900232B60092027
:1001F00018E00368002BF8D05A79002AF5D0598905
:1002000082889142F1D1186806210DF1070202F0AF
:100210000BFB0028E9D19DF8070010F00100E4D1A4
:1002200023682B6003B030BDCA7E8B7E032843EA6F
:10023000022301BF487D0A7D42EA002243EA0243CD
:1002400018467047C2F307238A76CB760378032BD0
:1002500001BF120C0A75120A4A757047F8B5856B12
:1002600000F13C070446394600682A46012302F0A3
:10027000B5FAA0B9E36A626AE071EB1A934201D35E
:100280000020F8BDA679012EFAD9636A20681D44C2
:1002900039462A46012302F0A1FA013EF3E7012084
:1002A000F8BDC3790BB1FFF7D9BF18467047836B10
:1002B000994270B506460D4611D0FFF7F2FF04468D
:1002C00070B92A46306806F13C01012302F064FA55
:1002D00000281CBF4FF0FF350124B56300E0002467
:1002E000204670BD002310B5C3714FF0FF33836308
:1002F0000446FFF7DCFF30BB94F83B2294F83A3217
:1003000043EA02234AF6552293421ED194F83C3028
:10031000E92B05D0E36B104A03F0FF13934216D18B
:1003200004F17200FFF730FF0C4B20F07F40984241
:100330000FD004F18E00FFF727FF094B984214BF3E
:100340000220002010BD042010BD032010BD02209B
:1003500010BD002010BD00BFEB00900046415400CE
:10036000464154332DE9F043437987B0044601F008
:10037000FE05ABB1062100680DF1070202F054FA48
:100380009DF80730D9070BD4002D00F02C8103F025
:10039000040303F0FF00002B00F028810A2025E170
:1003A000002363710DF107022068052102F03CFA79
:1003B0009DF80730DA0700F118810DB15B07EDD425
:1003C00020460021FFF78EFF0228034603D104F2E6
:1003D000022600250DE0012800F200812679002E7A
:1003E000F5D12AE002AF103647F825000135042D7B
:1003F00007D016F8040C0028F4D03046FFF7C4FEEE
:10040000F0E7257905B1013D57F825602EB120466A
:100410003146FFF767FF034600E0032322792AB93C
:10042000012B0AD90135032DEED9D7E0042B00F0BA
:10043000D880012B01D90D20D8E094F8482094F8F9
:10044000473043EA0223B3F5007FF4D194F8538098
:1004500094F8523053EA082804D104F16000FFF701
:1004600093FE804694F84C70C4F824807B1E012BC8
:10047000A771E0D894F84950ABB2E381002BDAD0F1
:100480006B1E2B42D7D194F84E9094F84D3043EA2E
:10049000092919F00F0FA4F80C90CCD194F8500052
:1004A00094F84F3053EA002003D104F15C00FFF7C9
:1004B0006BFE94F84B3094F84A2052EA0323BAD0EA
:1004C00007FB08F103EB19120A449042B3D3801AD8
:1004D000B0FBF5F5002DAED04FF6F570854206D88D
:1004E00040F6F577BD4294BF0127022700E00327BD
:1004F000023533443244032F2562A662E36262630D
:1005000010D194F8672094F8663053EA022392D110
:10051000B9F1000F8FD104F16800FFF735FEAD008F
:10052000206310E0B9F1000F85D0022F4FEA45009B
:1005300018BF40190B4418BF05F0010523630CBF19
:10054000054605EB500505F2FF15B8EB552FFFF4F6
:1005500072AF4FF0FF33A3616361032F4FF080034D
:1005600023722FD194F86D2094F86C3043EA022363
:10057000012B27D12046711CFFF799FE10BB94F880
:100580003B2294F83A32207243EA02234AF655227B
:10059000934217D104F13C00FFF7F6FD154B98424A
:1005A00010D104F50870FFF7EFFD134B984209D105
:1005B00004F50970FFF7E8FDA06104F50A70FFF784
:1005C000E3FD60610D4A6771138801339BB21380AC
:1005D000638100200A4B2361E06107E0042B7FF474
:1005E0002AAF012002E0284600E0032007B0BDE862
:1005F000F08300BF525261417272416126000020B7
:100600002800002001292DE9F84305460C4616462E
:100610006DD9036A99426AD24379022B3BD0032BEE
:100620004BD0012B63D101EB5108C16A01EB58217A
:10063000FFF73DFE074600285AD108F10109C8F32B
:100640000808A84414F0010418BF98F83C20E96A8F
:10065000F3B21EBF02F00F0242EA0313DBB288F8C6
:100660003C300123EB71284601EB5921FFF71FFEB7
:100670000746E8BBC9F308032B4414B1C6F30716B9
:1006800006E093F83C10C6F3032621F00F010E4359
:1006900083F83C6028E0C16A01EB1421FFF707FEF4
:1006A000074628BB640004F4FF742B1983F83C60F0
:1006B000C6F3072683F83D6016E0C16A01EBD4114A
:1006C000FFF7F5FD074698B9A40004F4FE742C4426
:1006D0003C342046FFF758FD26F0704600F070418C
:1006E00031432046FFF75BFD0123EB7100E0022759
:1006F0003846BDE8F8830129F8B506460C4653D9BB
:10070000036A994250D24379022B29D0032B3AD065
:10071000012B49D101EB5105C16A01EB5521FFF7CE
:10072000C6FD10B14FF0FF30F8BD6F1CF16AC5F384
:1007300008053544304601EB572195F83C50FFF74A
:10074000B6FD0028EED1C7F308003044E30790F867
:100750003C0045EA00204CBF0009C0F30B00F8BD87
:10076000C16A01EB1421FFF7A2FD0028DAD1600075
:1007700000F4FF743319344493F83C3094F83D008E
:1007800043EA0020F8BDC16A01EBD411FFF78FFDE9
:100790000028C7D1A00000F4FE7030443C30FFF7C1
:1007A000F3FC20F07040F8BD0120F8BDB1F5001F4A
:1007B0002DE9F04106460C46076802D30220BDE849
:1007C000F081CA06FAD18568316165B97B79022B5F
:1007D00001D93B6B33B9BB89B3EB541FEED93B6BEB
:1007E000B3611AE01D46B7F80E8029464FEA482843
:1007F00044450DD33068FFF77EFF431C01461BD0F4
:100800000128DBD93B6A9842D8D2C8EB0404EFE751
:1008100038460D46FFF7CBFCB061B3697561002B1C
:10082000CCD003EB5423C4F308043C443C34B36100
:10083000F4610020BDE8F0810120BDE8F0812DE9E0
:10084000F041804605680F4631B96E69A6B12B6A42
:100850009E4228BF012610E02846FFF74CFF0128E2
:1008600045D9421C03D14FF0FF30BDE8F0812B6A1F
:1008700098423DD33E4600E0012634462B6A0134BF
:100880009C4205D3012E02D80020BDE8F08102244D
:10089000D8F800002146FFF72EFF30B1012827D0FD
:1008A000431C25D0B442E9D1EEE7284621464FF05B
:1008B000FF32FFF7A7FEC0B947B92A6AAB696C617E
:1008C000023A93420AD2013BAB6107E0284639461F
:1008D0002246FFF797FE0028EFD006E02B7A43F080
:1008E00001032B722046BDE8F0810128BBD0012016
:1008F000BDE8F0810129F8B507460D46046801D826
:100900000220F8BD236A9942FAD232B1114620463C
:100910004FF0FF32FFF776FE10BB38682946FFF72D
:10092000EAFE064608B90020F8BD0128E8D0431CBD
:1009300015D0204629460022FFF764FE80B9226ABE
:10094000A369911E8B423FBF0133A361237A43F019
:10095000010338BF237296423546DED3E3E7012018
:10096000F8BD2DE9F0410025D0F800808D75836930
:1009700006460C46002B61D0C36A013316D001F144
:100980001507D8F8103033F8150060B100213DF09C
:100990006BFD28B1FF2D05D0013507F8010FF0E7F9
:1009A000054600E0002525440023AB750023A17D0A
:1009B0001A46F569501CAA5C202A21D0052A08BFD6
:1009C000E522092806D1E51809B92E27AF752E278B
:1009D0006F720133E5186A7289B9A2F14107192FC4
:1009E0000CD8F76908283F7B8CBF4FF0100E4FF0F2
:1009F000080E1EEA070F1CBF2032D2B2AA750133BF
:100A00000B280246D5D131B9E2189175F269127BF3
:100A1000002A08BF0023234400225A72F369DB7ABC
:100A20002372F56905F11C00FFF7AEFB206005F1AC
:100A30001600FFF7A9FBE080000CA080BDE8F08164
:100A4000F8B50446FFF72DFC0546002D42D1637929
:100A5000032B37D1267A012E34D104F13C072946E5
:100A60004FF4007238463DF081FC552384F83A3249
:100A7000AA2384F83B3252234122722184F83C306D
:100A800084F83D30612384F83E3084F83F2084F8B8
:100A9000222284F8233284F8201284F8211204F5EB
:100AA0000970A169FFF77BFB04F50A706169FFF724
:100AB00076FBA26A20680132A2633946334601F010
:100AC0008DFE2572002120680A4601F0ADFE00303F
:100AD00018BF0120F8BD2DE9F84383690468026955
:100AE00005460F46002B69D002F12008B8F5001F1B
:100AF00064D2C8F30809B9F1000F57D14169013335
:100B0000836131B9A389B3EB581F4FD80023AB6180
:100B100054E0E389013B13EA582347D12046FFF70D
:100B2000EAFD0128064602D80220BDE8F883421CEF
:100B300002D10120BDE8F883236A984230D3002F08
:100B4000E4D028466969FFF77AFE0646002838D0C7
:100B50000128E9D0431CECD02046FFF7A2FB074652
:100B60000028E6D139464FF4007204F13C003DF014
:100B7000FDFB20463146FFF71AFBA063E3899F4245
:100B80000BD20123E3712046FFF768FB0028D0D188
:100B9000A36B01330137A363F0E7A36BDF1BA763EC
:100BA0006E6120463146FFF702FBA8614C443C349D
:100BB000C5F81080EC610020BDE8F8830420BDE892
:100BC000F8830720BDE8F883F8B50F4600210446F6
:100BD0000668FFF7EBFDA8B905463046A169FFF7A7
:100BE00066FB78B9E3691B78E52B00D01BB90135AA
:100BF000BD4201D1F8BD054620460121FFF76BFF3C
:100C00000028EAD0042808BF0720F8BD2DE9F047E6
:100C1000FF25066880460F462C464FF00409D8F899
:100C20001810002976D03046FFF741FB8146002896
:100C300073D1D8F81C000378002B75D0C27AE52B4D
:100C400002F03F0288F806205BD02E2B59D022F00C
:100C50002001A1F1080CDCF1000141EB0C01B942CB
:100C60004FD10F2A43D15A0607D503F0BF04D8F855
:100C70001030457BC8F82C3001E0A34241D1437BC2
:100C8000AB423ED1C27E837ED6F810E043EA022317
:100C90001BB2B3BB027802F03F02013A0D214A4376
:100CA0004FF0010C234913F8019000EB090191F872
:100CB00001A010F8091041EA0A21BCF1000F06D08A
:100CC000FE2A1ED82EF812108C46013203E04FF691
:100CD000FF79494515D101330D2BE3D103785B062C
:100CE0001FD5FE2A0DD800232EF8123019E01CB9AA
:100CF000FFF768FA85421AD04FF0FF33C8F82C305E
:100D000015E0FF2440460021FFF7E5FE814600285C
:100D100085D002E0B9F1000F09D00023C8F81830DF
:100D200005E0013CE4B2EDE74FF00409F5E7484681
:100D3000BDE8F087C00C0608C16A4B1C70B50446BC
:100D40000568066903D0FFF731FD0146B0B9A16916
:100D50002846FFF7ACFA014668B9E369E5221A7044
:100D60000123EB712369B34208D22046FFF7B3FE9B
:100D700001460028EBD0042908BF0221084670BDB7
:100D80002DE9F04F002185B00546D0F80080FFF72F
:100D90000DFD002840F096804FF0FF334FF0FF0923
:100DA000EB624C464046A969FFF781FA002840F003
:100DB0008980EE693378002B7DD0F17AE52B01F044
:100DC0003F02AA716BD0090702D50F2A67D101E053
:100DD0000F2A53D195F82B20570664D4580606D510
:100DE00003F0BF042B6996F80D90EB6201E0A3427B
:100DF00058D1737B4B4555D1F77EB37ED8F810A000
:100E000043EA07273FB2002F4CD196F800B00BF011
:100E10003F0B0BF1FF334FF00D0B0BFB03FB0122DC
:100E20002A4BF95C73185878735C43EA0023B2B11B
:100E3000BBF1FE0F36D8184603933DF031FB0BF1A2
:100E4000010102903AF81B0001913DF029FB029A42
:100E5000824227D1039B01991A468B4603E04FF645
:100E6000FF718B421ED101370D2FD9D1337859062E
:100E700025D522B33AF81B300BB313E024B9304622
:100E8000FFF7A0F9814518D095F82B30DB0706D481
:100E9000304605F120010B223DF08AFA90B14FF067
:100EA000FF33EB62FF2428460021FFF714FE0028E1
:100EB0003FF478AF06E0042004E0204602E0013C65
:100EC000E4B2F0E705B0BDE8F08F00BFC00C060843
:100ED0002DE9F04790F82B20056812F0A00486B0A9
:100EE000064640F0E180296931F814300BB1013435
:100EF000FAE7374603AB57F8200F796803C3B868A1
:100F00001860D30768D5402386F82B304FF00108CE
:100F100003AB03CB2A697960B8F1050F19889B7878
:100F200038603981BB7215D9911E434631F8022FC2
:100F30008AB1102002F0010E0EEB430313F4803F40
:100F40001CBF83F4883383F0210301384FEA520237
:100F5000F0D1EBE74346072203F00F0000F1300128
:100F6000392988BF00F13701013A06A810441B094E
:100F700000F8131CF0D106A810444FF07E0E114665
:100F800000F814EC934201D13B4404E0F85C2028C3
:100F9000FAD00133F6E707299BBF06AA5218202290
:100FA00012F8142C03F8012BA3EB070298BF0131B0
:100FB000072AF0D93046FFF7E3FE30B908F10108FF
:100FC000B8F1640FA4D107208DE0042840F08B8095
:100FD0009DF8173086F82B309DF817309B0745BFDA
:100FE00004F10C030D240124B3FBF4F448BF0134D5
:100FF00030462146FFF7E8FD002874D1013C55D06A
:1010000031693046A1EB4411FFF7D0FB00286AD1CB
:101010003846FFF7D7F880462846B169FFF747F909
:101020000346002B5FD1F269D5F810C082F80D801D
:101030000F215FFA84FE0D20D1720EF1FF31414382
:1010400013739376D37618464FF6FF794845DFF849
:101050009C9018BF3CF8110013F8099002EB090AA4
:1010600002F809004FEA10298AF8019003F1010300
:101070004FF6FF7918BF0131002808BF48460D2BF5
:10108000E2D1484502D03CF811300BB94EF0400E89
:10109000012382F800E03046EB710021FFF71BFDD1
:1010A00008BB013CB8D101E006201CE02846B1692C
:1010B000FFF7FDF80446A8B92022F06921463DF06B
:1010C00055F9F3693A681A607A685A603A891A8160
:1010D000BA7A9A7296F82B30F26903F018031373F8
:1010E0000123EB71204606B0BDE8F087C00C06086E
:1010F0002DE9F74F0B78D0F800A02F2B0646884635
:1011000001D05C2B01D1424602E0DAF81C3008E045
:1011100013782F2B904602F10102F9D05C2BF7D007
:101120000023B36098F800301F2B5DD88023304631
:10113000002186F82B3003B0BDE8F04FFFF736BB37
:101140002F285AD05C2858D0B4F5807F00F0288131
:1011500001213DF089F9002800F022817F2804D880
:10116000994A12F8013F002B52D127F8020F254669
:101170001BF8010F1F2805F10104E1D82028A04425
:1011800034BF04240024012D45D1B9F800302E2BA2
:1011900047D1002329F8153006F11F02AB4234BFB6
:1011A0002E21202101330B2B02F8011FF6D144F030
:1011B000200486F82B403046FFF7E2FD96F82B30EE
:1011C000002840F0D7805A0700F1FA80B379DB0697
:1011D00040F1E48031699AF80500C1F308015144F7
:1011E0003C31FFF721F8B0603368D3F8109008F174
:1011F000FF3BA9F102070025BAE708EB0403C8EB9F
:10120000030413F8012B2F2AF9D05C2AF7D0B5E795
:101210008342A6D1C4E0022D03D1B9F802302E2BAF
:10122000B3D009EB450304E033F8022D202A03D1A3
:10123000013D002DF8D101E02E2AF9D0002709EB5D
:10124000450B29F81570002D00F0AA80202106F129
:1012500020000B223DF08AF8394639F81130202B56
:1012600001D10131F9E72E2BFBD009B144F0030481
:101270005B4633F8022D2E2A01D0013DF9D100231F
:101280004FF0080B1F4639F811004A1C00284CD0BB
:10129000202804D02E2806D1AA4200F0838044F0F2
:1012A00003041146EFE75B4502D2AA4215D179E06B
:1012B000BBF10B0F05D144F003043B464FF00B0B81
:1012C00034E0AA4202D044F003042ED8BF00FFB29B
:1012D0002A464FF00B0B0823E3E77F280ED90021A5
:1012E0008DE80C003DF0C0F89DE80C0018B13749BE
:1012F000084410F8800C44F0020430B1DFF8D0E06C
:101300001EF8011F29B18142FAD144F003045F2085
:1013100006E0A0F1410189B2192947D847F0020738
:10132000F118013381F82000BBE73B4696F82020F6
:10133000E52A04BF052286F82020BBF1080F04BF70
:10134000BF00FBB203F00C020C2A03D003F0030130
:10135000032901D144F00204A1073FF52AAF03F0AD
:101360000303012B08BF44F01004042A08BF44F013
:1013700008041EE7042823D113F0200F03F0040310
:1013800007D0002B3FF430AF802386F82B300020AD
:1013900016E0002B14BF0420052011E005200FE00B
:1013A00006200DE0BBF10B0F90D184E7A0F16101A5
:1013B00089B219299EBF203847F0010780B2AFE7F4
:1013C00003B0BDE8F08F00BF6B0C0608DC0C06080C
:1013D000740C060800214171FEF7C4BF002343715D
:1013E000184670472DE9F04705468CB091461F46D8
:1013F0000C46002900F0B48003F03F063146FEF7AA
:10140000B1FF002840F0B7800DF13008494648F898
:10141000305D4046FFF76CFE20B99DF92B30002B64
:10142000B8BF062017F01C0F4BD040B1042802D1E2
:101430004046FFF74DFD46F0080648B19BE09DF899
:10144000063013F0110F40F09180780700F18A8088
:10145000310740D548F0C8FB0746079839460E309B
:10146000FEF79DFE079839461630FEF798FE079B5B
:101470002022DA72DDF81CA0A946514619F8050FA2
:10148000FEF7D2FE0022074651464846FEF7DAFE36
:10149000079B00221A775A779A77DA770123EB7144
:1014A000CFB140463946D5F83890FFF723FA0028E7
:1014B00061D128464946FEF7FAFE013F6F6150B1FF
:1014C00059E0002857D19DF80630DA064CD4BF0702
:1014D00001D5D8074AD4AB6B079F2362676268794E
:1014E0003107394648BF46F04006FEF79DFEA06032
:1014F000804607F11C00FEF747FE6B89A380B20609
:101500004FF000030746E060256026746374E361D2
:1015100063612DD560B3EE8960617602B7420FD961
:1015200041462068FFF7E7F80128804603D9431CAD
:101530005842584100E00220BF1B0028EED000E0D6
:101540000020C4F81880B0B9C7F3080383B1284657
:101550004146FEF72CFE68B100EB5720E06107E042
:1015600009200AE0082006E0042004E0072002E049
:10157000002002E00220002323600CB0BDE8F087C9
:101580002DE9F74F994600238846C9F8003001A994
:1015900005461446FEF725FE00287FD1687C00280A
:1015A0007CD12B7CDA0778D5EB686869181A8442FD
:1015B00028BF0446002C6ED06B69C3F30802002AD2
:1015C00046D1019AD789013F17EA532710D10BB9A9
:1015D000A86803E02868A969FFF78DF8012801D8F9
:1015E000022002E0431C02D10120687456E0A86189
:1015F000DDF804B0A9695846FEF7D9FD0028EFD000
:101600005FEA542A00EB070621D0BBF80E30DBF866
:1016100000000AEB07029A4288BFC7EB030A414663
:101620003246534601F0B8F80028DDD10199CB7954
:1016300053B1886B801B504506D208EB40203C31EB
:101640004FF400723CF04FFE4FEA4A2618E0EE617C
:101650006E690198E969C6F30806C6F50076A642E8
:1016600028BF2646FEF723FE0028BDD16969019BED
:10167000C1F30801194440463C3132463CF033FE88
:101680006B6933446B61D9F800303344B044C9F816
:101690000030A41B8EE7204600E0072003B0BDE821
:1016A000F08F2DE9F74F984600230F46C8F8003019
:1016B00001A904461646FEF794FD002840F0B380C9
:1016C000607C002840F0AF80237C9A0740F1AA801C
:1016D0006369DE4254D3DE4352E06369C3F3080218
:1016E000002A40F08380019AB2F80EA00AF1FF3A76
:1016F0001AEA532A47D00198E369826B9A4262D072
:10170000DDF804B0A1695846FEF751FD00284DD020
:10171000750A00EB0A095BD0BBF80E30DBF800005D
:1017200005EB0A029A4288BFCAEB030539464A46CE
:101730002B4601F053F8834600283BD1DDF804A086
:10174000DAF83810C9EB0101A94209D20AF13C00CC
:1017500007EB41214FF400723CF0C5FD8AF807B059
:101760006D026369E2682B4463619A422CBFE260B8
:10177000E360D8F800302B442F44C8F80030761BC3
:10178000002EAAD10AE01BB9A16869B9204601E080
:10179000A1692046FFF753F8014628B9237C43F09E
:1017A0004003237400203EE0012901D1022002E021
:1017B0004B1C02D10120607435E0A368A161002BAD
:1017C00099D1A16097E7FEF76CFD002898D0F1E76A
:1017D0006269E3689A4207D35846FEF762FD002823
:1017E000E8D1019BC3F83890C4F81C906569019852
:1017F000E169C5F30805C5F50075B54228BF354652
:10180000FEF755FD0028D5D16069019BC0F30800A3
:1018100018442A463C3039463CF065FD019B0122C4
:10182000DA719EE7072003B0BDE8F08FF7B501A994
:101830000446FEF7D6FC054660BB237C5B0629D533
:1018400048F0D2F9216A07460198FEF730FD0546B7
:1018500000BB666AF37A43F02003F3722068A26843
:1018600005303146FEF7EEFC06F11C00E168FEF79C
:1018700096FC06F116003946FEF791FC0198B57406
:101880000123F574C371FFF7DBF8237C23F04003D9
:1018900005462374284603B0F0BD13B50446FFF790
:1018A000C5FF28B9204601A9FEF79BFC00B92060BE
:1018B00002B010BD70B50E468CB000210546FEF793
:1018C00051FD0446E8B90CA8314640F8305DFFF7F9
:1018D0000FFC044680B99DF92B30002B02DA029BE5
:1018E000EB610EE09DF80630DB0609D568790799B3
:1018F000FEF79AFCE86104E0042808BF052400E034
:10190000052420460CB070BD2DE9F0470D4600219E
:10191000D2B0297081469046FEF724FD0746002884
:101920006FD1D9F81C30CDF8009002934646DDF80F
:1019300008A0BAF1000F2DD068462021FEF736FF2F
:10194000044600283ED148460699FEF7B0FC0446FE
:10195000C0BB079999F80500FEF766FC2146029086
:101960006846FEF723FF044660BB68460021FFF788
:101970004DF9044648BB99F805000799FEF754FC59
:101980008245684625D02146FFF7A5F80446002881
:10199000EBD01AE0464503D12F226B1C2A7009E0D8
:1019A000A9192B4611F8012B03F8012B721B1A44BD
:1019B0004245F7D300221A7023E0E21C96422346E8
:1019C00011D2112427462B46F4E7042C08BF022429
:1019D000F8E70CA9FEF7C5FF0CAB23449B7D002B59
:1019E000EBD00134F8E73BB1013B0CA9321B1944A1
:1019F0002A44897DD154F6E7E44326442F23AB558E
:101A000095E7384652B0BDE8F08773B50D4601A999
:101A10000446FEF7E6FB002874D1607C002871D1F3
:101A2000E3689D4204D9227C12F0020F08BF1D46D4
:101A30000022636962610DB9002551E0019AD689DF
:101A400076026BB1013B6A1EB3FBF6F1B2FBF6F214
:101A50008A4205D3724213406361ED1AA16910E016
:101A6000A16869B92046FEF7EAFE0128014601D1C6
:101A7000022002E0013002D10120607442E0A16046
:101A8000A1610029D8D0B5421CD963693344636190
:101A9000237C9A07A5EB060505D52046FEF7CFFE69
:101AA000014620B90DE02068FEF725FE01464B1CDB
:101AB000E2D00129DCD9019B1B6A9942D8D2A161ED
:101AC000E1E7054663692B446361C5F30803002B16
:101AD000B2D00198FEF76BFB0028C9D000EB55256A
:101AE000E3686069984282BF237CE06043F0400372
:101AF000C0F3080088BF237420B1E3699D4218BF7A
:101B0000E561002002B070BD70B5054616460C4672
:101B100011B30021FEF726FCD8B9256020463146D6
:101B2000FFF7E6FAF0B994F92B30002B07DBA37925
:101B3000DB060DD56879E169FEF776FBA0606B895D
:101B4000A38020460021FEF731FE0346042B05D179
:101B500005200023236070BD092070BD002BF8D143
:101B6000184670BD0428F4D1F2E713B501A9044664
:101B7000FEF737FB00B9206002B010BD73B50E460A
:101B800001A90546FEF72DFB0446C0B928462146AB
:101B900016B9FEF70BFE11E0FFF738F810F0FB0F57
:101BA0000CD128463146FEF7DCFE21462846FEF7DA
:101BB00092FF042814BF0446002400E00446204697
:101BC00002B070BD70B50E468CB0002104461546BB
:101BD000FEF7C8FB0094044680B968463146FFF71B
:101BE00087FA044650B99DF92B30002B05DB2DB147
:101BF00068462946FEF7B5FE00E0062420460CB0F4
:101C000070BD2DE9F84F8A4600210446FEF7AAFB75
:101C10000546002858D1D4F82090A369A9F1020202
:101C2000934202D8CAF800304EE06379012B10D1FC
:101C30000227064620463946FEF75DFD431C37D095
:101C4000012837D000B90136236A01379F42F1D30A
:101C500033E0D4F82CB0074680460646B8F1000FB2
:101C60000BD1204659460BF10108FEF720FB18BBAB
:101C7000C34604F13C074FF400786379022B09D185
:101C80007A783B7853EA022308BF01360237A8F17D
:101C9000020809E03846FEF777FA20F0704000B9F4
:101CA00001360437A8F10408B9F10109D6D104E0DE
:101CB000012502E0022500E00546CAF80060237A0B
:101CC000A66143F0010323722846BDE8F88FF0B502
:101CD0000E4699B002210546FEF744FB00950446E6
:101CE000002841D168463146FFF702FA0446002831
:101CF0003AD19DF82B30980606D41A0604D49DF8E4
:101D00000670F9072FD401E006242DE068790799C1
:101D1000FEF78AFAFB06064612D5EB699E4222D0F0
:101D200021460CA80C950E96FEF740FD0446D8B946
:101D300021460CA8FEF76AFF0446A0B1042813D17F
:101D40006846FEF7F9FF044670B926B92846FEF743
:101D500077FE044608E0224668463146FEF7CAFD93
:101D6000044608B9F2E70724204619B0F0BD2DE972
:101D7000F04F0E468FB002210546FEF7F3FA0295AA
:101D80000446002840F0A88002A83146FFF7B0F9C9
:101D9000044658B1042840F09F809DF8333003F08A
:101DA000200303F0FF011BB1062495E0082493E013
:101DB00002A8FEF744FDEB895B020593064618B1C5
:101DC000012E03D1022408E0072406E0731C00F072
:101DD00081802846FEF765FA044647F005FF8146F4
:101DE000002C57D131462846FEF7E1F905F13C07B2
:101DF000019021464FF4007238463CF0B7FA0B22AE
:101E0000202138463CF0B2FA2E2385F83C301023CE
:101E100085F8473005F15200494605F10508FEF7FF
:101E2000BEF9394632464046FEF70CFA05F15C0130
:101E30003B460A4653F8040B42F8040B8B42F9D197
:101E40002E2385F85D306B79049A032B03D12B6B1D
:101E50009A4208BF00224046FEF7F4F9B5F80EA0FA
:101E6000D346019B03EB0A02CBEB0202BBF1000F4E
:101E700016D0AA630122EA712846FEF7EFF904465C
:101E800040B9384621464FF400723CF06FFA0BF12E
:101E9000FF3BE6E702A831460022FEF72BFD1BE0E0
:101EA00002A8FFF715F804460028F3D1099C49461B
:101EB00004F11600FEF773F9214640463246FEF75C
:101EC000C1F91023E3720123EB712846FEF7B8FD38
:101ED000044601E0012480E720460FB0BDE8F08F02
:101EE0002DE9F0410C469EB0022106469046FEF7D1
:101EF00039FA002840F084801EAF214647F8606D13
:101F00003846FFF7F5F800287AD19DF8433013F0F2
:101F1000A00F68D10D996A4601F10B0301F11B0472
:101F200018685968154603C50833A3422A46F7D1F5
:101F3000186828601B792B713D460FCD12AC0FC479
:101F40000FCD0FC495E80F0084E80F0012A841469A
:101F5000FFF7CEF840B9089B149A9A424DD10A9BDC
:101F6000169A9A4249D101E0042849D112A8FEF7F5
:101F7000AFFF002844D119990DF1020301F10D02C0
:101F80000DF1120053F8044B42F8044B8342F9D18F
:101F9000188810809B7893709DF80030012443F0DE
:101FA0002003CB72F471CB7ADB061ED5149B089A02
:101FB0009A421AD07079FEF737F901463046FEF79B
:101FC000F6F80146D8B13046FEF771F9C0B996F877
:101FD0005D302E2B09D1701D06F15C01149AFEF7BD
:101FE00031F9F47101E006200AE03846FEF7A4FE5C
:101FF00030B93046FEF724FD02E0082000E0022060
:102000001EB0BDE8F08100002DE9F0410E4692B00F
:1020100002210746FEF7A6F9002840F083800697C4
:102020003246931B12F8011B1F29FAD83344B342DE
:10203000A3EB06041CD013F8012D202AF7D00025AD
:102040008DF80050B046012118F8010B3CF00CFA55
:102050003CF026FA00213CF007FA08B9062061E0BE
:10206000324A12F8013F002B36D08342F9D1F5E70E
:102070000024002106A80891FEF798FB002851D102
:1020800006A80121FEF7C2FD20B90D9AA4B9E523E7
:10209000137019E0042845D1E4B1012106A8FEF728
:1020A00093FD014600283DD120220D983CF05EF9B9
:1020B0000D9B0822DA720D9A6B4603CB10605160BB
:1020C00019889B78937211810123FB713846FEF7C2
:1020D000B7FC27E0204625E0FF2820D9092DBDD8F0
:1020E00012AB2B44020A03F8482C013512AA6B1CD0
:1020F0001544C6EB0802A24205F8480C01D21D4661
:10210000A1E76A466B44991A0A2903D8202103F8EB
:10211000011BF8E79DF80030E52BAAD19EE70A2DB8
:10212000E4D99BE712B0BDE8F08100BFAF0C060810
:102130002DE9F04F07688FB01C46002343710291D0
:1021400003790193154638460DF12F02052100F061
:102150006BFB9DF82F30DA0700F1E2825E0700F199
:10216000E182384603210CAA00F05EFB30B90C9BDB
:102170005A1EB2F5004F01D21A4201D001230C932E
:1021800035B1A54BA5F500729A4201D91320DAE2C8
:102190006A1E2A40FAD1189B5B0A05935B020693DC
:1021A000059B0BB90E20CEE2019B38461BB321469E
:1021B000012300F0F1FA002840F0B38194F8FF21E8
:1021C00094F8FE3143EA02234AF655229342E9D1BC
:1021D000019B04EB031606F5D7763379002BE1D08B
:1021E00006F10800FDF7D0FF804606F10C00FDF770
:1021F000CBFF0D9014E001210DAA00F015FB002883
:1022000040F08F81029B13F0080F0D9B14BF4FF01D
:1022100000084FF03F084345C4D3C8EB03030D93B8
:10222000DDF834B0BBF1310FBCD96A0A802AADD8D1
:10223000029B03F0020303F0FF0E3BB1029B03F08D
:102240000703022B07D0029BD80704D5029BD907AE
:102250009CD5022600E003264FEA1B3307930C9B14
:10226000032E03F1FF31C3F10003099108934FEAF4
:102270005B4C77D142B96949012531F8023F23B15E
:10228000634502D86D00F8E71546BBFBF5F36449DA
:102290004FEA830AA3F57F43F63B0AF2072A8B42F3
:1022A0004FEA5A2A3FF67EAF00230093202325E011
:1022B0000798834204D86D0031F8023F002BF7D114
:1022C00040F6F573BBFBF5FA9A459BBF0AEB4A0A49
:1022D0000AF1010A0AF1020A4FEA5A0A8CBF4FEAD0
:1022E0004A0A0AF1030A4FF020030AF2FF1A009388
:1022F0008CBF022601264FEA5A2A01230099099829
:1023000003EB0809514449440391084408990840E3
:102310000399032EA0EB0100039906BF1B1881440B
:102320008244C8EB051001448B45FFF43BAFC3EB7F
:102330000B010098CAEB0101032EA1EB0001B1FBD8
:10234000F5F1049114D0022E2BD104984FF6F571BB
:10235000884219D9002A40F0E7816D00402D00F233
:10236000E9812A4612B92F490125A5E71546A7E7B5
:1023700004984FF6F57188421DD8002A7FF412AFF9
:102380006A083FF40FAF75E7049840F6F57188428C
:1023900011D8002A7FF406AF6A00802A3FF602AF08
:1023A000E0E7049940F6F57291423FF6FBAECDF8B6
:1023B0000CA0012601E0CDF80CA000214FF4007222
:1023C000204607933BF0D2FF174A079B1168216014
:1023D00051686160A3731189927A2181C3F3072345
:1023E000032E4FF00201A272E3734FF000024FF090
:1023F0000103237414BF0B461346BBF5803FE27202
:10240000217365736274A37410D284F813B0CBF394
:10241000072B84F814B00EE000FEFF00CC0C060879
:10242000FFFFFE0F5C0C06087C0C060804F1200080
:102430005946FDF7B4FEF82363753F2323764FF02A
:10244000000BFF2384F819B0A37684F81BB004F1C5
:102450001C004146FDF7A3FE032E30D147F0C4FB1C
:10246000014604F14300FDF79AFE514604F12400B1
:10247000FDF795FE022384F82C30012384F83030D8
:10248000062384F83230802384F84030292384F8EE
:102490004230AE4B84F82DB084F82EB084F82FB0C3
:1024A00084F831B084F833B004F1470203F110012D
:1024B00053F8040B42F8040B8B42F9D11DE047F0AE
:1024C00093FB014604F12700FDF769FE802384F8A1
:1024D0002430292384F826309D4B84F816A0CAF3B3
:1024E000072A84F817A004F12B0203F1100153F816
:1024F000040B42F8040B8B42F9D119889B78937036
:102500004FF0550B6FF055031180384684F8FF31BA
:1025100084F8FEB121464246012300F05FF982466D
:1025200008B101200FE1032E3FD10123214608F11C
:102530000602384600F052F951464FF40072204628
:102540003BF014FF5223237063706123A37084F85F
:10255000E731049B41227221E27084F8E41184F88F
:10256000E51184F8E621591E04F5F470FDF717FE15
:10257000022384F8EC316FF0550384F8FF312146D3
:1025800008F10702012384F8EDA184F8EEA184F894
:10259000EFA184F8FEB1384600F020F93846214614
:1025A00008F10102012300F019F920460021069AE2
:1025B0003BF0DCFE032E0FD1F8232370FF23637062
:1025C000A370E37023716371A371E371237263726B
:1025D000A3720F23E37207E0012E5E49204618BF65
:1025E0006FF00701FDF7DBFD039B059A934228BFBF
:1025F0001346214638464A469A4600F0EFF801460F
:1026000000288ED120464FF400723BF0AFFE039BB2
:10261000B3EB0A03D1440393E6D1009B032E08BF1A
:102620002B460093009B059A934228BF13463846D9
:1026300021464A461D4600F0D1F800287FF471AFCC
:10264000009B5B1BA9440093ECD1032E08D00D9B8B
:10265000B3F5803F06D2022E0CBF0425012502E00F
:102660000C2500E00625019B93B100223846214647
:10267000012300F091F8024600287FF452AF019B3D
:1026800004EB0313384683F8B2512146012342E09C
:10269000029B1B0708D5002138460A4600F0C4F803
:1026A000003018BF01204EE001994FF4007220461F
:1026B0003BF05CFE552384F8FE310D9A84F8C2513C
:1026C000AA2384F8FF319DF8043084F8BE3184F8E1
:1026D000C131424443F6C163B2FBF3F2FE2384F8F6
:1026E000C331930843F03F03012684F8C43184F8D2
:1026F000C52104F5E370414684F8BF6184F8C061E8
:10270000FDF74DFD04F5E5700D99FDF748FD019AC3
:1027100038462146334600F061F80028BBD000E778
:10272000032010E00A200EE0BEF1000F3FF43AADA6
:1027300003269FE5BEF1000F01D003269BE5802D07
:102740003FF630AD0DE60FB0BDE8F08F880C0608FF
:102750009C0C0608F8FFFF0010B5044608B90120DC
:1027600010BD83885B0705D4A369002B0CBF042030
:10277000002010BD032303630123436300210220D3
:1027800004F1280228F0A2FD024B9842ECD0430845
:10279000EAD0E4E74495050870B50546E0B18088C5
:1027A00010F0010408D02C69084611461A46A047CB
:1027B000003018BF012070BD500040F001002861BA
:1027C00058022BF009F82146686105F10802022041
:1027D00028F07CFD204670BD042070BD70B5054614
:1027E000F0B18069F0B1A88810F0010408D02C6A1B
:1027F000084611461A46A047003018BF012070BD98
:10280000500040F00100286258022AF0E5FF2146FE
:10281000686205F11802022028F058FD204670BDBC
:10282000042070BD022070BD10B514460246002879
:1028300062D083885B072BD506295DD8DFE801F0DD
:10284000040B134D5C5055000723036301234363BE
:102850000021022034E009230363012343630021A4
:102860000220283233E00B2303630123436300215A
:102870000220283228F02AFD204B834204D14FF455
:1028800000732380002010BD2AF072F92080F9E740
:10289000062931D801A353F821F000BFB928000858
:1028A000C92800087F280008DB280008F92800084C
:1028B000E1280008EB280008806AF0B100200146FA
:1028C000283228F003FDDDE700200146303228F0F1
:1028D000FDFC2AF04DF92060D4E701232360D1E705
:1028E0001046FFF739FF2070CCE79369002B0CBF2F
:1028F000042300232370C5E7042010BD4495050878
:1029000008B543683BB10430FEF7C7FF18B1034B6D
:10291000185C29F0EDFB024808BD00BF1CD5050876
:10292000449505080868FFF7EBBF000037B51C4663
:10293000043001AB1546FEF7B4FE10B1054B1B5C2D
:1029400003E00198A84203D01C2323604FF0FF301E
:1029500003B030BD1CD5050813B51C46043001ABCF
:10296000FEF70EFE28B1044B1B5C23604FF0FF30D6
:1029700000E0019802B010BD1CD505082DE9F84310
:10298000814650680F4690462FF0B4FE002401386F
:1029900010F8013F13B3722B14D008D8612B1AD052
:1029A000622B0DD02B2BF3D144F00304F0E7772BEF
:1029B0000BD0782B0CD01B4A742B08BF1746E7E7C7
:1029C000194FE5E744F00104E2E744F00A04DFE7C9
:1029D00044F00604DCE744F01204D9E72C201DF093
:1029E00065FB0646054646F8047BD8F800002FF044
:1029F00081FE31460246E3B209F13800FEF7F2FCEF
:102A0000074630B128461DF073FB084BD85D29F00E
:102A10006FFBE30603D530462969FEF7F6FF28462B
:102A2000BDE8F883BCD5050880D505081CD5050888
:102A300030B587B0054603AC0748009001940846BE
:102A400011461A46032329F02DFD2946224600206F
:102A5000FFF794FF07B030BD04D5050870B50546F3
:102A600008460C4629F0A4FF2346024602492846A0
:102A7000BDE8704000F0F8BF3CD50508022970B5EC
:102A8000044615461E4616D15368012B05D0022B6D
:102A900007D063B90430116807E013683BB15F23C6
:102AA00013E00369116804301944FEF7AEFFA3690F
:102AB0002B60002070BD012906D10430FEF7B6FE60
:102AC00030B1044B1B5C00E0162333604FF0FF3045
:102AD00070BD00BF1CD505081FB5054B01910292C2
:102AE0000449039301AAFFF749FF05B05DF804FB11
:102AF00044950508BCD5050870B500F10C04C6B0B6
:102B0000064669462046FFF739F8054648BB9DF85A
:102B1000163033B30320294631F0F6F8337A0446F1
:102B20000DF1160043B13BF055FC2A4601460DF16C
:102B300016002FF0D7FC06E03BF04CFC01460DF1EF
:102B400016002FF06FFDA0609DF80830DB064CBF2B
:102B500048F201034FF00113E36001232361204693
:102B600003E02046FFF701F8002046B070BD0000EA
:102B7000F8B506463C200D4617461DF089FA0A4B6B
:102B800003600446094B4360077204F10C0106F12F
:102B900038002A46FEF7B8FF18B1054B185C29F03B
:102BA000A7FA2046F8BD00BF64940508F92A00087A
:102BB0001CD5050800B5C7B038306A46FFF702F8E3
:102BC00038B99DF8083013F0100F14BF012002200F
:102BD00000E0002047B05DF804FB00002DE9F84F4D
:102BE0002DED028B0629B0EE408A06468A469346B2
:102BF0001D469DF830700ED8012903D93F2303707C
:102C0000013600E009B100233370BAF1010F94BF1F
:102C100000200120F1E110EE103A002B08DA3CF020
:102C2000A4FA28B12D23741C3370B1EE488A04E055
:102C300017B1741C377000E03446B0EE480A3CF01F
:102C400094FA0BF020070128B0465FFA87F90BD100
:102C500089F04903237089F04E0389F046096370B7
:102C6000E01C84F802900EE0B0EE480A3CF07DFAD9
:102C700068B989F04E03DBB289F04109237084F80A
:102C80000190E01CA37000230370801BB5E1002DB0
:102C90004BF02002B8BF0625672A02D1002D08BFDD
:102CA000012518EE103A0AF1FF31301B002B0144C8
:102CB00019D1662A0BD16B1C8B424FF00000A8BFC4
:102CC0008D1E691C4FF0660E84460346DAE06B1DCC
:102CD0008B42A8BF8D1F652A96464FF0000140F039
:102CE000C3802B20C1E0B3F17E5F6FD2DFEDC57AE8
:102CF000DFF818A3B4EEE78AF1EE10FA4FF0000007
:102D0000ACBF4FF031094FF030094FF0200E0346B1
:102D1000BAEC017AB4EEC87AF1EE10FAC2BFDFF86D
:102D2000F0C284449CED007A00F10400C4BF7344F7
:102D300028EE078A18284FEA6E0EE9D118EE100A1D
:102D4000B0F17E5F10D2B4EEE78AF1EE10FA06DB46
:102D5000002B0CBF2B202D20B7EE008A05E0F2EEF1
:102D6000047A28EE278A01332D20662A03D0672AA9
:102D700023D1042B21DC672A04BF03F1FF302D1877
:102D8000681C8842A8BF8D1E84F800903DB90134AC
:102D9000294628464FF0FF3C4FF0660E81E02E2179
:102DA000617029460234013B62D021B1302004F821
:102DB000010B0139F7E708465BE0A1F1050EAE45CE
:102DC00000F31381672A59D08D1F58E00020DFF8E7
:102DD00040924FF0200E0346F9EC017AF4EEC87AE7
:102DE000F1EE10FA9EBFDFF824C28444DCED007AD5
:102DF00000F104009CBF734428EE278A18284FEA8C
:102E00006E0EE9D1F2EE047AB4EEE78AF1EE10FA32
:102E1000A2BFDFED7D7A013328EE278A662A0AD128
:102E20008B420ADA58190130884218DBC91A8D1E04
:102E300015D54D1E13E0652A05D1481FA84200F3A1
:102E4000C1808D1FBEE0672A40F0D280281D8842D5
:102E500000DB4D1FAB4280F2BB80D9430D44E91823
:102E600001319C46002006E008468C460B4609E0EE
:102E700018464FF0FF3C4FF0660E03E0754696464D
:102E800000218C4625EAE575BEF1650F01D1691C6C
:102E900007E0BEF1670F04D115B901210D4600E02E
:102EA00029464FF0000989451EDAFDEEC87ACC4567
:102EB00017EE90BA0BF1300B04F1010A84F800B060
:102EC00006D12DB14FF02E0B04F1020A84F801B0A7
:102ED000F8EEE77A09F1010938EE678AF2EE047A32
:102EE00028EE278A5446DEE7662A02D1012B51DC00
:102EF00073E0F1EE047AB4EEE78AF1EE10FA3DDB0E
:102F000004F1FF3CE14619F801192E2901D1CC4604
:102F1000F8E7A1F1300ABAF1090F02D90CF1010664
:102F20000BE0392904D0013166468CF8001004E02A
:102F30003021664589F80110E9D1317830291DD159
:102F400096F801C0BCF12E0F0DD1BEF1660F0AD06C
:102F50002D2886F800C0717003D1013B08BF2B20DB
:102F600002E0013300E001342146B14204D911F8F6
:102F700001EC01F801E9F8E731213170672A09D144
:102F800045B12246144612F8015D302DFAD02E2D9F
:102F900008BF144688B160700A2093FBF0F292FBE0
:102FA000F0F100FB123300FB112147F045073031EF
:102FB00030332770A170E370043400232370C8EB12
:102FC00004001AE000212B208C464FF0650E59E7D3
:102FD0004FF0670E00212B2053E7F1EE047AB4EE98
:102FE000E78AF1EE10FA8BDAD4E79646002102E088
:102FF000964600212B208C4646E7BDEC028BBDE8AF
:10300000F88F00BFF8FF7F3FCDCCCC3DA076050800
:103010008876050808B504460B4631B1044A0260BB
:1030200009689A6B00232BF0C9FC20461DF010F8AC
:10303000DC8905082DE9FF471F460192461812B1A9
:10304000023A222A01D8054607E03A4828F074FEE1
:10305000207801351EF048F918B1B5422C46F7D357
:103060000DE023782B2B02D12C46814609E02D2B35
:103070000ABF2C464FF000094FF0010901E04FF064
:1030800000092046311B01AA27F0AFFD0444A246E7
:103090004FF00008B24553460DD29AF80020A2F135
:1030A0003005092D03F1010A0DD942F02005A5F1E3
:1030B0006102192A06D94246B9F1000F11D0C8F1B0
:1030C00000020EE0573D01998D42F4D2404635F0A2
:1030D0004FFEC0B9019B03FB085898EA4803D9D5B5
:1030E00011E0520042F00105A34217D01C46B44241
:1030F000234606D2187801341EF0F6F80028F6D1DF
:103100000CE013D00AE004A8019B40F8044D311BE9
:103110004A462CF05BFE039B0546E5E70649074857
:10312000019A2BF0ADFB3946FFF774FF284604B037
:10313000BDE8F087B8760508DB76050870840508D9
:103140002DE9F0472DED028BDDF8288016461F464D
:1031500000EB010A04465445254680F00581287895
:1031600001341EF0C1F80028F5D12B782B2B2C460A
:1031700002D10134814604E02D2B0FD101344FF0F0
:10318000010954450BD39FED7A7A9FED7A8A00238B
:1031900025469E461A46F0EE476A5BE08146237854
:1031A00043F02003692B33D1A31C9A4540F2A88039
:1031B000637843F020036E2B40F0A280A37843F0A5
:1031C0002003662B40F09C80E31D9A4504F1030523
:1031D00040F28F80E37843F02003692B40F0898030
:1031E000237943F020036E2B40F08380637943F012
:1031F0002003692B7DD1A37943F02003742B78D170
:10320000E37943F02003792B73D104F1080570E0D2
:103210006E2BB8D1A31C9A4572D9637843F0200372
:10322000612B6DD1A37843F020036E2B68D1E51C90
:1032300000269FED518A5FE02878A0F1300CBCF1A8
:10324000090F05F101011BD8022A06D10A2000FB53
:1032500003C30D465545EFD338E007EE90CA012A67
:10326000F8EEE77A1DBFB2EE046AE8EE067A0022B5
:10327000A7EE878A14BFB0EE678A27EE267AE8E7C2
:1032800012B92E2802D11FE0022A13D040F02002EA
:10329000652A0FD1514509D26A782B2A01D1A91C80
:1032A00004E02D2A04BFA91C4FF0010E514554D053
:1032B0000222CEE76EB140F020006A281A460ABF0B
:1032C0000D460026012605E00122C2E71A46002627
:1032D00000E01A46BEF1000F00D05A4207EE902AD5
:1032E000B2EE040AF8EEE70A3BF084FF28EE008A0B
:1032F00002E09FED228A0026B9F1000F09D006E016
:10330000B9F1000F29D09FED1B8A25460026B1EEAA
:10331000488AA54221D055452B4606D2187801355A
:103320001DF0E2FF0028F6D117E016D126B19FED7F
:10333000110AF0EE480A04E0B0EE480A3FB1DFEDB2
:103340000D0ABDEC028BBDE8F0472AF017BCBDECBE
:10335000028BBDE8F0472BF051BC094909482BF01E
:10336000EFFA4146FFF756FE4FF000090BE700BFAA
:10337000CDCCCC3D000000000000C07F0000807F6D
:1033800003770508708405080846114640F084B9A3
:1033900070B5064608460D463BF01CF8044620B1C1
:1033A00096E80900294622469847204670BD00004D
:1033B0002DE9F74F0D9C9146A41A9DF8302012F08C
:1033C000DF0F06468A4609D0302A0CAA264F0EBFC8
:1033D0004FF0100817464FF0010802E0234F4FF05E
:1033E000100813F0800205D0022394FBF3F3E51AD2
:1033F0001C4602E013F0010515D1002C16DDA34692
:10340000C345DC46A8BFC446624696E80900394673
:10341000CDF804C09847DDF804C0CCEB0B0BBBF132
:10342000000FEDDC03E02546144600E00024B9F16E
:10343000000F05D096E8090051464A4698474C448B
:10344000002D0DDD2C444545A946A8BFC14696E890
:10345000090039464A46C9EB05059847002DF2DCBC
:10346000204603B0BDE8F08F835F0508945F050830
:103470002DE9F04389B08046119E10989DF8489040
:10348000139F0AB900220DE0002904DA2D228DF8DD
:103490000F2049420EE0B40701D52B2202E072074B
:1034A000F0D520228DF80F2021B908AC302304F884
:1034B000013D12E008ACB1FBF3F503FB1512092A3C
:1034C000C6BFA0F10A0E7244303204F8012D04AADE
:1034D0009442294601D9002DEDD116F040039DF804
:1034E0000F500DD0ADB10122CDF8009001924046B1
:1034F0000DF10F013346FFF75BFF013F054608E082
:103500003DB104AA944284BF04F8015C04F1FF3485
:103510001D4608AB1A1BCDF8009001974046214686
:103520003346FFF745FF284409B0BDE8F0830000AB
:103530002DE9F04F91B093469946CA079DF86C303B
:103540001A9E059382460C461C9FDDF874800BD4AE
:103550008B0703D10968814B994205D0204629F099
:1035600007FB400040F0010416F0810306D1059AE4
:10357000302A03D14745B8BF4746984620462CF02D
:1035800032FB002808A90BDBB50701D52B2302E08D
:10359000720705D520238DF820300DF1210500E0BC
:1035A0000D46F30622D5BBF1020F06D12B46302083
:1035B00003F8020B09F1010016E0BBF1080F0AD174
:1035C000B2054FF030032B7045BF09F10E036B704D
:1035D000013502350AE0BBF1100F07D12B46302030
:1035E00003F8020B09F1170068701D46002316F05E
:1035F000200F0CBF18462C20B8F1010F0CAAC8BF31
:1036000046F04006099216F0400F4FF010022B7062
:103610000B938DF81F30A5EB01050A92CDF800B091
:103620005FFA89F315D0002201920293039023469A
:1036300009A80AA90BAA2CF08BF903782D2B834635
:1036400015D18DF81F300B9B013B00F1010B0B9343
:103650000DE00191029303900AA909A80BAA234641
:103660002CF076F9B8F1010F834644DC02E0B8F1A2
:10367000010F64DC4FF000094C46730619D59DF824
:103680001F3053B1002301220093019250460DF1E7
:103690001F01FFF78DFE013F044455B100230122B5
:1036A00001920093504608A92A46FFF781FE7F1B2E
:1036B0000444059B0B9AB8F1010FC8BF47468DE83B
:1036C0008800504659463346FFF772FE0444B9F16C
:1036D000000F09D0202300228DE80802504620491F
:1036E0001346FFF765FE044409980CAB984230D0AE
:1036F0001CF0FEFC2DE00B9C4445B8BF4446BC4288
:103700000ADA06F00103002BA7EB040416BFA1465A
:103710004FF00009002402E04FF000094C4626F06B
:1037200001064CB1202300228DE8180050460C49B8
:103730001346FFF73DFE0446302305939DE70B9C9F
:103740009DF81F304445B8BF444603B101342C44B2
:10375000D5E7204611B0BDE8F08F00BF6C8F05089B
:103760005D1106082DE9F0438BB012F0020F0746F9
:103770000C4691469846129E05D112F0040F0CBFDC
:103780000023202300E02B23009302A820212246BF
:10379000139BFFF723FA19F4807F05460DD0431CD5
:1037A0001F2B0AD80AAA1544252205F8202C0AAA9C
:1037B0001A44002102F8201C1D4619F0400412D0C2
:1037C0009DF808302F2B4FF000030ED8012202A9DC
:1037D000009301923846FFF7EBFD013E0446013DA0
:1037E0000DF1090103E002A901E002A91C46CDF890
:1037F0000080019638462A464B46FFF7D9FD204403
:103800000BB0BDE8F08300002DE9F04F814689B090
:10381000904600240B461D4613F8012B4AB98D42F1
:103820000AD96E1A99E80900324698473444294665
:1038300002E0252AEFD1F2E70B78002B00F00C8193
:1038400001314FF0200B00270A4611F8013BABB1C4
:103850002D2B02D147F00107F6E72B2B02D147F0C1
:103860000207F1E7202B02D147F00407ECE7212BF8
:1038700002D147F00807E7E7302B02D04FF0000AEB
:1038800003E047F040079B46DEE7134612F8011BB2
:10389000A1F13000092805D80A2303FB0A1AAAF16E
:1038A000300AF2E72E291E461CD15A782A2A02D065
:1038B0000133002207E0D8F80020023608F10405A1
:1038C00022EAE27211E01878A0F1300109291E46BF
:1038D00003F1010304D80A2101FB0202303AF2E7A6
:1038E000454602E045464FF0FF3233786C2B08BF67
:1038F00001363378002B00F0AF80642B70D012D8E3
:10390000502B79D005D8A3F14501022940F28280DD
:1039100099E0622B17D029D8582B40F0948005F1FC
:10392000040841236BE0712B2DD004D8672B71D98B
:10393000702B61D087E0752B47D0782B5CD0732B30
:1039400040F0818031E02B68CDF800B005F104082B
:10395000CDF804A0484613B14149042201E0414991
:1039600005223B46FFF724FD044473E008A92B68B9
:1039700001F8043D05F10408CDF800B0CDF804A02D
:1039800048460122EDE707A9286804921DF0BAFA1B
:10399000049ACDF800B00146501C05F1040808BF98
:1039A000079ACDF804A04846DBE7531C05F104084C
:1039B0002D6803D128463AF00DFD0246CDF800B03F
:1039C000CDF804A048462946CBE761238DE8880856
:1039D000CDF80CA005F1040848462968002209E04A
:1039E00061238DE88808CDF80CA0296805F104084A
:1039F000484601220A230AE005F1040861238DE804
:103A00008808CDF80CA02968484600221023FFF74B
:103A10002FFDA9E7073525F00705D5E90001059336
:103A200004924DF069FE059B049A019200EE100A83
:103A30001946CDF800A048463A465B4605F108080D
:103A4000FFF790FE90E799E8090031460122984778
:103A50000134A846711CDDE6204609B0BDE8F08FB0
:103A6000785F05087D5F05080EB403B503AA52F818
:103A7000041B0192FFF7C8FE02B05DF804EB03B02F
:043A8000704700008B
:020000040802F0
:10000000C460056146618761C0F81C80C0F820901B
:10001000C0F824A0C0F828B0C0F82CD0C0F808E080
:1000200000F002B800200000034B1B685B689A6870
:100030000260986000207047EC4E0020034B1B6864
:100040005B689A6812689A60704700BFEC4E0020A7
:100050000E4B1B685A6893680BB922F09FFA196817
:10006000586091601846C468056946698769D0F888
:100070001C80D0F82090D0F824A0D0F828B0D0F878
:100080002CD0D0F808E001207047FEE7EC4E0020AD
:1000900010B50021044600F0C1FA18B914B1204689
:1000A0000BF034FE10BD002100F0B8BA10B50121EC
:1000B000044600F0B3FA18B914B120460BF026FE3E
:1000C00010BD10B50446FFF7E3FF18B914B1204680
:1000D0000BF01CFE10BD10B501220C4600F0E8FB31
:1000E00018B914B120460BF011FE10BD00F0E0BBB2
:1000F00000F070BB3448D0F808332DE9F04F4FF0D2
:10010000030E00F50276044600F5427BB34244D963
:100110001D1FD0F8F0C153F8041CC0F8085300228A
:1001200001328B184FEA930803F003031CF8088090
:100130005B0048FA03F303F00303022BF0D0D0F87E
:10014000FC3112014FEA920C03EB0113CAB3043BDA
:1001500053F8042F110719D1D0F8FC51AA4215D336
:10016000551BD4F800724FEA95182D0905F00301CC
:10017000BA424FEA410109D2D4F8F0A11AF8089026
:1001800049FA01F202F00302012A08D0BCF1010C85
:10019000DED1D0F80833B342BAD8BDE8F08F0EFAFA
:1001A00001F141EA09090AF80890D4F80813594501
:1001B00001F1040836BFC4F80883C4F804220D60B6
:1001C000E4E72B46A2E700BF38450020F8B521F050
:1001D0000F073C1A194A1A4DE400A2FB0434640AC2
:1001E0000319A7EB841E224600211E46C5F8F831EC
:1001F000C5F8FCE1C5F8F001C5F8F441C5F8007296
:100200001EF0B4F8A20007323046D20800211EF0DA
:10021000ADF8002301214FF0FF3205F54770A5F836
:100220000E13C5F81423C5F81833A5F80C33C5F818
:100230001033BDE8F84023F0C9BD00BFF32C23FA0A
:1002400038450020034AB2F80C330133A2F80C33CE
:10025000704700BF38450020034AB2F80C33013B19
:10026000A2F80C33704700BF38450020034BB3F8A9
:100270000C03003018BF0120704700BF3845002034
:100280002DE9F843254DB5F80C33002205F5027130
:100290000133A5F80C33C5F80813C5F81023C5F8C9
:1002A00004222C1F05F5E8762F4605F542794FF01C
:1002B000030854F8043F1A0719D1D5F8FC219342DA
:1002C00015D39A1AD7F800024FEA921E120902F0CB
:1002D000030183424FEA410109D2D7F8F0C11CF86B
:1002E0000E0040FA01F303F00303012B05D0FFF7E2
:1002F00001FFB442DDD1BDE8F88308FA01F10843FB
:100300000CF80E00D7F80813494501F1040036BF78
:10031000C7F80803C7F804320A60E8E73845002048
:1003200000293ED02DE9F8431E4E0D46A0F10409E8
:1003300006F542780024032759F8043F1A0718D11C
:10034000D6F8FC21934214D39A1A4FEA921E12094E
:1003500002F003014800D6F800128B4209D2D6F809
:10036000F0C11CF80E1041FA00F303F00303012B57
:1003700006D00134FFF7BEFEAC42DDD1BDE8F88304
:1003800007FA00F001430CF80E10D6F808134145A7
:1003900001F1040036BFC6F80803C6F804320A604B
:1003A000E7E77047384500202DE9F04F554ED6F865
:1003B000F401D6F8043283B0800006F502753746A2
:1003C0003BB30024C6F80853C6F8044218B944E009
:1003D0000134844219D2A308D6F8F01104F00302C4
:1003E000CB5C5200134103F00303032BF0D1D7F889
:1003F00008331A1DC7F808231C60FFF77BFED7F8E7
:10040000F401013480008442E5D3D6F80432002B95
:10041000D7D110B39C46DFF8EC901D464FF0030A8D
:1004200006E0032B62D0012B22D00135854214D285
:10043000AF08D6F8F02105F00304D15D640041FA5D
:1004400004F303F00303022B02EB070EE9D1BCF126
:10045000000F3FD101358542EAD3B6F80C330022B4
:10046000013BA6F80C33C6F8182303B0BDE8F08FA3
:100470004FEAD50BD9F8F82112F80BC005F00708A0
:100480004CFA08F0C3075A4424D52901D9F8FC01D5
:100490004358084493B16A460E210AF083FF009A3C
:1004A0003AB10BF051FE9DE803000BF035FE0BF066
:1004B00063FED6F8F82112F80BC05A44012303FA60
:1004C00008F32CEA030C82F800C0D6F8F031D95DAD
:1004D00003EB070E0AFA04F321EA03018EF8001079
:1004E000D6F8F4014FF0010C80009EE70223A340F0
:1004F00021EA0301D155D9F8F4014FF0000C800036
:1005000093E700BF38450020434BD3F8FC11D3F8E4
:1005100000222DE9F04F521A0025D3F8F091D3F8BC
:10052000F431856080E82400C5600561456185611E
:1005300099F800B04FEA83082E46AC46AA46AE466C
:1005400029462A462F467F004BFA07FB0BF0030390
:10055000012B31D03FD3022B02D10136466001314D
:100560000132C2EB0804B4FA84F4640964B9930854
:1005700002F0030719F803B07B004BFA03F313F002
:10058000030301D0012BDED101292CD002292ED06A
:10059000A94284BF81610D4694B9012B4FEA9203B1
:1005A00029D019F803B002F003077F004BFA07FBCC
:1005B0000BF00303012BCDD1013646601946CFE77E
:1005C000D64501D9C0F80CE036014FEA0C1346605D
:1005D0008360BDE8F08F0CF1010CC0F808C00EF18B
:1005E000010E0021BCE7076901370761D0E74769C1
:1005F00001374761CCE7D64505D8A64619F803B0C0
:1006000002F003079FE7C0F80CE0F24619F803B0C8
:10061000A64602F0030796E7384500200F302DE983
:10062000F84F060957D06A4FB7F80C33002B52D158
:10063000B7F80E430D46002C50D1D7F81823D7F841
:10064000F4E1724538BF4FF0010C44D2D7F8F00105
:1006500081181AE00134A64252D913F00C0F1ED1B2
:100660000134A64240F2A88013F0300F1CD10134AF
:10067000A64240F2A48013F0C00F1AD10134A64262
:1006800040F2A0800132724518D211F8013B13F0FC
:10069000030FDFD013F00C0F4FF00004E0D013F085
:1006A000300F4FF00004E2D013F0C00F4FF0000401
:1006B000E4D0013272454FF00004E6D3BCF1000FE4
:1006C00009D127F017F9D7F81823D7F8F4E17245C4
:1006D0004FF0010CBAD30020BDE8F88FD7F81023F3
:1006E000D7F814339A4270D2D7F81823D7F8F4E128
:1006F000724528BF0024E4D24FF0000C6446A5E701
:100700009300012CA3EB040103F1010C01F101089A
:1007100004BF4FEA9C02C7F818234FEA980208F07A
:1007200003094FEA490910F802E0012404FA09F428
:10073000023144EA0E048B42845428BF4FF0020970
:1007400010D34FEA910ED7F8F02101F0030412F80C
:100750000E00640009FA04F4013120438B4202F8D0
:100760000E00EED2D7F8FCB1D7F81033DFF8609066
:100770004FEA081AC8EB0C020BEB0A041E441201E4
:1007800020460021C7F810631DF0F0FD15B9204682
:10079000BDE8F88F0023D9F8F8514BF80A304FEA3A
:1007A000D80101236A5C08F0070803FA08F3134331
:1007B0006B542046BDE8F88F9200531CA1E79200CD
:1007C000931C9EE79200D31C9BE727F093F88BE7DE
:1007D00038450020F0B41C4EB6F80C338BBB80B308
:1007E000D6F8FC31D6F8F851C01AC40901092A5DBF
:1007F00001F007070123BB4022EA03032B55D6F87B
:100800001833D6F8F0418009984238BFC6F818036B
:10081000225C8D0801F0030303275B0007FA03F352
:1008200022EA030262550131D6F8F0418D0801F049
:100830000303625D580042FA00F000F00300022852
:10084000EBD0F0BC704700BF38450020034610F0E5
:100850000F0029D1154AD2F8FC118B4214D310B4E1
:10086000D2F80042A3420DD25B1AD2F8F0419A09A5
:100870001909A35C01F003025200134103F00303C2
:10088000012B02D05DF8044B704701300B189A0819
:1008900003F00303A25C5B0042FA03F303F00303DB
:1008A000022BF2D00001EDE7002070473845002010
:1008B0002DE9F0470346002800F02081002968D088
:1008C000180740F09B80904ED6F8FC71BB42C0F0F8
:1008D0009580D6F80002834280F09080DF1BBC092F
:1008E000D6F8F0513F0907F0030015F804804000E6
:1008F00048FA00F808F00308B8F1010F7ED1B6F805
:100900000C43002C7AD1D6F8F40107F1010C8000D9
:1009100001F10F0E60454FEA1E1EA14613D94FEAA2
:100920009C040CF0030A2C5D4FEA4A0A44FA0AF4CC
:1009300004F00304022C64D02CB909F1010909EB7D
:100940000804A6455FD8C64520D061D27744B8EBED
:100950000E0E13D0BE443A464FF0030C01E0D6F819
:10096000F051940802F00300295D40000CFA00F0F9
:10097000013221EA000172452955F0D1D6F8182339
:100980006149BF08974201D2C1F818731846BDE803
:10099000F0875D4EB6F80C2382BBD6F8FC11D6F872
:1009A000F851431AD8091C09295C04F007070122F1
:1009B000BA4021EA02022A54D6F81823D6F8F001E8
:1009C0009B09934238BFC6F81833C25CA50804F0EF
:1009D000030303275B0007FA03F322EA03024255ED
:1009E0000134D6F8F001A50804F00303425D590074
:1009F00042FA01F101F003010229EBD00020BDE829
:100A0000F08708F101080CF1010C844587D19AE7C1
:100A1000C144CE451C4608464FD9F908D6F8F831EE
:100A2000DFF8E4905B5C07F007073B4103F001014E
:100A3000002AE3D0FFF7F2FD05460028DED04FEA9A
:100A4000081221461DF04FFCB9F80C3393BBD9F8BE
:100A5000FC31D9F8F871E31ADC091909385D01F0A5
:100A6000070E012202FA0EF220EA02023A55D9F8E4
:100A70001823D6F8F0419B09934238BFC9F81833C0
:100A8000E25C8F0801F003034FF0030E5B000EFAE7
:100A900003F322EA0302E2550131D6F8F0418F0850
:100AA00001F00303E25D580042FA00F000F0030099
:100AB0000228EBD02846BDE8F08708EB070377440F
:100AC000BB4210D24FF0020C01E0D6F8F05198086A
:100AD00003F003012A5C49000CFA01F101330A43D7
:100AE000BB422A54F1D1C8EB0E02120104EB0810EC
:100AF00000211DF03BFC2046BDE8F0870846BDE81C
:100B0000F0471946FFF78ABD3845002010B58AB076
:100B100003A80B4CFFF7F8FC0599039A049B00917E
:100B200020460849E2F7A0FF099806990090019134
:100B3000079A089B04492046E2F796FF0AB010BDC9
:100B4000705F050898170508BC1705082DE9F041E6
:100B5000544F55495548D7F8FC21E2F785FFD7F89F
:100B6000F411890018BF00251ED180E005F00306AE
:100B700076004FEA9508D7F8F0314A4A13F8083062
:100B8000334103F00303022B6FD0032B6BD0012BF7
:100B900044D02E2246494548E2F766FFD7F8F411C3
:100BA00001358900A94262D9A806DFD18D426CD2F5
:100BB000D7F8F0014FEA950805F0030610F8083061
:100BC000760033419A0721D12C4604E0825C42FA38
:100BD00003F39B0708D1013404F003038C424FEA6E
:100BE00094024FEA4303F1D3621B7F2A0ED9920984
:100BF0002E483049E2F738FFD7F8F43124F03F05AA
:100C0000B5EB830F33D24FEA950800262A4A2B49C9
:100C100026482B011A40E2F727FFACE7D2F8FC1177
:100C2000274A2B01CB58934229D0264A934228D0F9
:100C3000254A93422FD0254A93421ED0244A9342FC
:100C40001BD0244A93421ED0234A93421BD0234AEE
:100C5000934222D0224A934221D0224A93420CBF8F
:100C60004D22682296E76D2294E73D2292E70F48D5
:100C70001D49BDE8F041E2F78BBB53228AE75422BD
:100C800088E74C2286E7412284E705F003067600D8
:100C90004FEA9508BAE744227CE746227AE74222E7
:100CA00078E700BF3845002004180508705F050884
:100CB0004818050824180508F0FF0F00401805081B
:100CC00074A305086C900508E081050890A005084C
:100CD0004CA005084C7F0508107F0508648B0508AB
:100CE000208D0508D491050820180508074B5B697D
:100CF0004BB15A68904204D3801A043053F8200054
:100D000070471B68F4E71846704700BF384500205D
:100D1000014441F20553884205D210F8012B03EB40
:100D200043135340F7E798B2002808BF01207047EB
:100D30000448054B43610023C0F8D43100F5F0703E
:100D400023F044B838450020ECE605082DE9F84FBB
:100D500081468846FFF7DCFF154B5C69834624B368
:100D6000E56804F1100A043504EB85055646AE42E9
:100D7000374618D256F8040B4278037843EA022328
:100D80005B45F4D183784345F1D10330494642466F
:100D90001DF00EFB0028EAD16368CAEB070003EBE5
:100DA000A000BDE8F88F2468D9E72046BDE8F88F99
:100DB000384500202DE9F84F81460E46FFF7C6FF63
:100DC000024600287CD1404CD4F8D401351DD0B166
:100DD000D4F8DC31D4F8D8112B448B4213D92944F0
:100DE000FFF784F9074648B9D4F8D401D4F8DC11E8
:100DF0003A46FFF77BF9C4F8D47104E0D4F8D8314F
:100E00002B44C4F8D831D4F8D431C3B97F2D8CBF6A
:100E10002F4680273846FFF746F9C4F8D40148B971
:100E20002846FFF740F9284BC3F8D40108B92846F3
:100E30002FE02F460023C4F8D871C4F8DC31D4F871
:100E4000DCA1D4F8D4B1DFF880803146554448465F
:100E5000C4F8DC51FFF75CFF0BEB0A070BF80A0044
:100E60003246000ABE703E4478704946F81C0025A0
:100E70001DF039FAF57063699868DB68834215D311
:100E80000230C000FFF70FF9D8F8143018B998688D
:100E900040000AF03BFFD9685A6803609B68C56050
:100EA0000A445B0042608360C8F814006269D1683C
:100EB0004B1C0431D36042F821705268013A1A4445
:100EC0001046BDE8F88F00BF3845002010B5044635
:100ED0001DF080FA01462046BDE81040FFF76ABFCA
:100EE00008B5FFF703FF4278007840EA022008BD0A
:100EF00008B5FFF7FBFE807808BD08B5FFF7F6FEE2
:100F0000033008BD10B50C46FFF7F0FE8378236070
:100F1000033010BD2DE9F0411D46002303600B6036
:100F200013602B60174B5C690746884616461CB356
:100F3000154B9C4220D03B6801333B60D8F8002021
:100F4000E3681344C8F80030E368043304F1100286
:100F500004EB83039A4207D23168081D52F8041B40
:100F6000897801443160F5E72046FFF76FFC2B6874
:100F7000246818442860DAE72A68336813442B6031
:100F8000BDE8F08138450020ECE605080C4B70B553
:100F90005C69A4B10B4B9C4211D0E368043304F1AB
:100FA000100604EB8305AE4207D256F8042B06491F
:100FB00006480332E2F758FDF5E72468E9E770BD1B
:100FC00038450020ECE60508E02C0508705F0508B0
:100FD00038B54468036821449942054611D9037B1A
:100FE000DB0703D5074800210AF086FE01F1100453
:100FF00024F00704083480682146FFF76CF82C6061
:10100000A86038BDAC84050870B505460E4611468B
:101010001446FFF7DDFF6B68A86822461844314686
:101020001DF08DF96B681C446C6070BD70B546682E
:10103000B142044628BF31460D460121FFF7C8FFE3
:10104000A168681C0844721B29441DF078F9636884
:10105000A06801336360284470BD38B5044600259C
:10106000002914BF0846012020606560FFF710F8D2
:10107000237BA06065F30003237338BD38B50546B4
:101080000C460131FFF7E9FF6C6038BD0023436077
:10109000037B016043F0010382600373704700002B
:1010A00038B514460546FFF7D8FF024B256063604C
:1010B00038BD00BF09100208037BDB0710B50446EA
:1010C00002D48068FFF714F80023A36010BD38B580
:1010D00005461020FEF7DCFF29460446FFF7BDFF5A
:1010E000204638BD10B5044650B1037BDB0702D45F
:1010F0008068FEF7FDFF2046BDE81040FEF7F8BF10
:1011000010BD000038B5037BDB0704460D4603D550
:10111000074800210AF0F0FD016880682944FEF7C5
:10112000DAFF2368A0601D442560184438BD00BF65
:10113000AC84050838B504460D46FFF749FF6368DF
:10114000A0681D446560184438BD90E80C009A42C0
:1011500010B5044602D10121FFF7D4FFA2686368ED
:101160000021D154A06810BD10B50C460121FFF735
:10117000E1FF047010BD7F29F8B50D4604D80121A8
:10118000FFF7D8FF0570F8BDB1F5006F4FEA911475
:1011900001F03F0609D20221FFF7CCFF64F03F04C3
:1011A00066F07F0604704670F8BDB1F5803F4FEAE7
:1011B00011370ED20321FFF7BDFF04F03F0467F0A3
:1011C0001F0764F07F0466F07F0607704470867026
:1011D000F8BD0421FFF7AEFFAD0C07F03F0704F0A8
:1011E0003F0465F00F0567F07F0764F07F0466F049
:1011F0007F06057047708470C670F8BD38B5054627
:1012000008460C461DF0E6F8214602462846BDE891
:101210003840FFF7F9BE10B51446FFF707FF04701A
:1012200010BD10B51446FFF701FF047010BD4368F0
:1012300099428CBF00235B1A4360704770B5154616
:101240004268914204460ED24B19934201D3416049
:1012500070BD8668521A7018521BF1181DF06FF895
:101260006268521B626070BD03781A0613D503F0E2
:101270007F0340221A4203D023EA02035208F9E70F
:1012800010F8012F02F0C001802904D102F03F02C2
:1012900042EA8313F4E718467047421C10460132B5
:1012A000037803F0C003802BF8D0704700238142FD
:1012B00007D911F8012D02F0C002802A18BF0133AE
:1012C000F5E7184670470144034600208B421A4652
:1012D00008D2127802F0C002802A03F1010318BF7D
:1012E0000130F3E7704700007F289DBF024B185C78
:1012F000C0F3400000207047A55F05087F289DBF10
:10130000024B185CC0F3C00000207047A55F0508C1
:101310007F289DBF024B185CC0F3800000207047FF
:10132000A55F05087F289DBF024B185CC0F38010A5
:1013300000207047A55F05087F2809D8064B1B5C75
:1013400013F00C0F06D1A0F15F03584258417047CB
:101350000020704701207047A55F05087F289DBFCA
:10136000024B185CC0F3001000207047A55F050811
:101370007F289DBF024B185CC0F3401000207047CF
:10138000A55F050810B50446FFF7E8FF10B104F1AA
:10139000200010BD204610BD10B50446FFF7E8FF41
:1013A00010B1A4F1200010BD204610BD303809282E
:1013B00084BF20F020000738704710B50144044670
:1013C00000208C4216D214F8013B20B11A0615D524
:1013D0000138C0B2F5E7BF2B09D9F72B0FD8DB08CE
:1013E00003F00602E523134103F00300E9E71B06BF
:1013F00005D4E6E7B0FA80F0400910BD002010BD2A
:10140000023981420B4603D31A880239002AF8D0E8
:101410000233181A40107047F0B51C0994421AD2D2
:10142000121B01EB4401154606466DB131F8024B23
:10143000012D84BF0F8844EA074403F00F07FC40E6
:1014400026F8024B013DF0E700EB420030F8023C89
:101450001BB9501EF0BD0020F0BD1046F0BDF0B528
:10146000059F0024D21B2546BC420AD031F814E067
:1014700033F814607644354420F814502D0C0134B0
:10148000F2E764000619023C2144374614463CB199
:1014900031F8023F1D4427F8025B013C2D0CF6E7B2
:1014A00006EB42031DB1012126F812100233181A6F
:1014B0004010F0BDF0B5059F0024D21B2546BC426C
:1014C0000AD031F81460354433F81460AD1B20F8AD
:1014D00014502D140134F2E764000719023C0C4447
:1014E000164639463EB134F8023F1D4421F8025BEE
:1014F000013E2D14F6E707EB4201BDE8F040FFF78F
:101500007FBF2DE9F0439E4608AB93E82802DDF843
:101510001C80561E02398446741C22D031F8027F8A
:10152000C2EB0804344407F57F47B44207F1FF07D4
:101530002F449DBFBEF8005005F57F44FF344FF6A1
:10154000FF744C4484EA070513FA85F32CF8023B38
:1015500098BF0EF1020E4FEA14493D0C1B0C013EE0
:10156000DAE700EB420113B120F812300231BDE896
:10157000F043FFF745BF10B5044638B18068FEF769
:10158000B7FD2046BDE81040FEF7B2BD10BD38B52E
:101590000446806801298CBF0D46022518B12368D6
:1015A000B5EB930F07D96900FEF795FD2368A0609E
:1015B00065F39F03236038BD38B505460C20FEF760
:1015C00067FD2A78037862F300036FF34103044652
:1015D000037028682368C0F39D0060F39F032360B5
:1015E0006B686360AB680BB9A3600AE04000FEF76C
:1015F0004FFDA0602A68A968C2F39D0252001CF04A
:1016000072FE204638BD10B54B0018441A4449B14B
:1016100030F8023D32F8024D1B1B002B04DB06D1D3
:101620000139F4E7084610BD4FF0FF3010BD01202E
:1016300010BD38B505460C460221FFF7A8FF2B78F0
:10164000002CB5BF43F001036FF300032B702B7028
:101650004FF00003B4BF614221466B6039B16B6843
:10166000AA68581C686022F81310090CF6E738BD08
:10167000037803F0FE036FF34103037003686FF315
:101680009F030360002343608360704728B10378A1
:101690009B0702D48068FEF72BBD704738B505461E
:1016A0000C464968FFF773FF22782B78A868A16879
:1016B00062F300032B7063686B606268BDE83840BA
:1016C00052001CF010BE034609B959607047FFF77D
:1016D000B0BF38B505460C46FFF7CAFF284621467D
:1016E000BDE83840FFF7EFBF30B50578816005F001
:1016F000FE0545F002050570056862F39F050022AE
:10170000056042601946BDE83040FFF7DCBF70B5A8
:101710000421064614461D46FFF739FF9DF81020A8
:10172000337852B1002C75F1000206DA43F0010360
:101730006242337065EB450304E06FF300033370DE
:1017400022462B460021716052EA03010CD07168D9
:10175000B0684C1C746020F81120110C41EA034160
:10176000180C0A460346EFE770BD2DE9F04110EE74
:10177000105A0378EA0F62F300030370C5F30F43B6
:1017800013F4FF43804604D10023C8F80430BDE8B9
:10179000F081B3F5FF4FF7D0C5F3C753A3F17F0630
:1017A000002EF1DB04D10121BDE8F041FFF741BF7C
:1017B000162ED8BF0026C5F31605A3F16F074FF00C
:1017C0001004D8BFC3F1960397FBF4F7C8BF0936DE
:1017D00045F40005D8BF34463946C9BF963BDD40C5
:1017E00006F00F0693FBF4F4FFF7D1FEC8F804707F
:1017F0002CB1D8F80800002162001CF0B7FD4EB1F2
:10180000D8F8083005FA06F2C6F1100623F81420BD
:10181000F540013464007F00BC4205D0D8F80830A0
:101820001D532D0C0234F7E7BDE8F0812DE9F84394
:101830008F1804460E46C2F35B0198460131089D9D
:10184000FFF7A5FE2278B8F1000F02D042F00102A6
:1018500001E068F300020023227063603146B94260
:10186000084631D20278A2F13003092B01F10101BF
:101870000CD9A2F14103192B02D8A2F1370305E0DC
:10188000A2F16103192B1FD8A2F15703AB421BD25F
:10189000A068D4F804E09BB27246844652B1BCF80A
:1018A00000801FFA85F909FB08332CF8023B013A46
:1018B0001B0CF3E700EB4E0213B120F81E3002328E
:1018C000121A52106260CAE7801BBDE8F883F8B5AF
:1018D000044615461E4621B1531E1E444FF0FF37E5
:1018E00000E00127E9000F3109092046FFF74FFE0C
:1018F000237800216FF30003237061609DB1002302
:101900000F2908DC32788A401343013D9BB201F174
:1019100008013E44F4D16268501C6060A068103930
:1019200020F81230EAE76168A06800EB4101FFF798
:1019300067FD6060F8BD38B544680CB94B68CBB141
:101940000B78057803F0010305F001029B1A11D111
:101950004B6880688A689C4204D306D82146FFF70A
:1019600052FE03E04FF0FF3000E00120EB0702D50C
:10197000404238BD184638BD884210B5044601D0F3
:10198000FFF78CFE23786FF30003237010BD8842AD
:1019900010B5044601D0FFF781FE2378C3F300029F
:1019A000C2F1010262F30003237010BD88421FB52B
:1019B000044601D0FFF772FE626842B92046012159
:1019C000FFF7E5FDA26801231380636021E023781F
:1019D000D9070ED56FF30003A06823700123ADF87B
:1019E0000E30009301460DF10E03FFF763FD6060BA
:1019F00013E0511C2046FFF7CAFDA068626801236E
:101A0000ADF80E30009301460DF10E03FFF727FDF0
:101A10006060237843F00103237004B010BD2DE90A
:101A2000F84F0F4649680646144601B12AB93046B8
:101A30003946BDE8F84FFFF731BE02F10F052D0919
:101A40002944FFF7A4FD7968B368B86805EB01087D
:101A500014F00F0208F1004404F1FF3401F1004ECC
:101A60006FF0010C4FEA44040EF1FF3E0CFB01FC49
:101A70000CEB4E0E2344704408BF102299464FF0E1
:101A8000000EC2F1100A59B130F811B04BEA0E0E37
:101A90002EFA0AFA29F802A94FEA0E4E0139F0E7A8
:101AA0002EFA0AFE03EB0C0923F80CE06B00C3F1DD
:101AB000020305F100429944013A484652001CF0E5
:101AC00055FC02344C44B8F1000F05D034F8023D07
:101AD00013B908F1FF38F6E7C6F804803A7833788E
:101AE00062F300033370BDE8F88FF0B50D46496826
:101AF00085B00446164601B122B920462946FFF7B3
:101B0000CDFD44E0FFF743FDA9686A68A06833464D
:101B1000FFF782FC60602978237861F3000323706B
:101B2000DB07024633D500236868ADF80E30310973
:101B300083420DD08B420BD0AF6837F813702FB1B2
:101B400001238142ADF80E3004D313E00133EFE7F7
:101B500081421CD2AB6806F00F0633F81100012158
:101B600001FA06F3013B184218BFADF80E10BDF89C
:101B70000E3063B10123A06812B90380636006E0F0
:101B8000009301460DF10E03FFF769FC606005B09C
:101B9000F0BD73B5154606460C4688686B68496803
:101BA0009268994204D306D8FFF72DFD002802DA87
:101BB00023462C461D462A7823785340DB070DD454
:101BC000616830460131FFF7E2FC6B680093B06852
:101BD000A1686268AB68FFF742FC0BE030466168C1
:101BE000FFF7D5FC6B680093B068A1686268AB68CA
:101BF000FFF760FC70602278337862F30003337083
:101C000002B070BDF7B5154606460C4688686B688D
:101C100049689268994204D308D8FFF7F4FC002879
:101C200004DA234601272C461D4600E000272A78C7
:101C300023785340DB070DD5616830460131FFF74B
:101C4000A6FC6B680093B068A1686268AB68FFF798
:101C500006FC0BE030466168FFF799FC6B68009367
:101C6000B068A1686268AB68FFF724FC70602278F6
:101C700033781FB1C2F30002C2F1010262F3000324
:101C8000337003B0F0BD2DE9F04F16464A68736813
:101C90009A420C463EBF34460B461E462378DA076E
:101CA00085B0054621D4317811F001071DD1616856
:101CB000FFF76DFCA868A468D6F808E0726839469A
:101CC000914208D03EF8116034F81130334020F8CA
:101CD00011300131F4E700EB4101FFF791FB2B7864
:101CE00068606FF300032B7065E06168284601317E
:101CF000FFF74DFC227831787368019381EA020383
:101D000003F0010383F001035F42BFB202F001025E
:101D1000A868D4F804E0009301F001010397A368D8
:101D2000D6F808805742BFB2C1F1000C02971FFAE3
:101D30008CFC0EF1FF37A3F1020982467B1C26D0F2
:101D400039F802BF029B8BEA030B019B5A44CEEB8E
:101D5000030BBB44BB4598BFB8F800B0039B94BFCE
:101D60008CEA0B0BE346594401EA020B8BEA030BA6
:101D7000009B13FA8BF32AF8023B4FEA134398BFF8
:101D800008F10208090C120C0093013FD6E7009BF2
:101D900000EB4E011BB1012320F81E300231FFF78A
:101DA0002FFB686023783278C3F3000313402A784E
:101DB00063F300022A7005B0BDE8F08F2DE9F84FFB
:101DC00017464A687B689A420D463EBF3D460B4621
:101DD0001F462B78DB07064632D43B7813F001040C
:101DE0002ED16968FFF7D3FBD7F808C06A687F680F
:101DF000D6F808E0A968D01B2346BB4208D03CF8BF
:101E0000134031F8132022432EF813200133F4E756
:101E10005B000EEB0302023B0B441446014629B162
:101E200033F8025F24F8025B0139F8E702EB400265
:101E3000CEEB020233785210726061F3000347E088
:101E4000696830460131FFF7A2FB2B783C7869685E
:101E5000B068AD68D7F808C0D7F8048003F0010374
:101E600004F00104C3F100096742A5F1020E1FFA54
:101E700089F9BFB24A1E82460125B2F1FF3F1FD049
:101E80003EF802BF8BEA090B5B44C1EB080B93449D
:101E9000934596BFBCF800B0BB4687EA0B0B5C4489
:101EA00044EA030B6FEA0B0B15FA8BF52AF8025B79
:101EB00098BF0CF1020C240C1B0C2D0C013ADCE732
:101EC00000EB4101FFF79CFA3378706043F00103A7
:101ED0003370BDE8F88FF0B516464A6873689A42C9
:101EE00038BF0B460C463CBF34461E462378377835
:101EF0005F4017F0010785B0054639D16168FFF7EB
:101F000046FB2378716813F0010322D16268A86848
:101F1000A768B668521A8B4209D036F813E037F832
:101F200013408EEA040420F813400133F3E75B000A
:101F3000C118023B3B4414460E462CB133F8027FD5
:101F400026F8027B013CF8E701EB4201FFF758FA63
:101F500009E08DE8820002970397A868A16862688B
:101F6000B368FFF7CEFA2B7868606FF300031DE0CB
:101F700061680131FFF70BFB736800930123019344
:101F80002378A86803F0010383F0010302933378F8
:101F900003F0010383F001030393B368A16862684F
:101FA000FFF7AFFA2B78686043F001032B7005B0A0
:101FB000F0BD2DE9F04F4B6885B004460E4615463E
:101FC0000BB1536823B90023636005B0BDE8F08FFF
:101FD000814206D1FFF7F0FAB542074608D105461F
:101FE00006E0824206D1FFF7E7FA0546074602E01F
:101FF0003E4600E000277368696820461944FFF7F1
:10200000C6FA2268A068C2F39D02002152001CF0AB
:10201000ADF9B368D6F804E0D4F808A002936FF0E5
:10202000010303FB0EF3D5F808806A6803930AEBFB
:102030004E010020039B01EB030C2AB3029BCDF859
:1020400004E0A3F102090023019878B1B8F8000078
